:100000000C9497000C94B4000C94B4000C94B400BD
:100010000C94B4000C94B4000C94B4000C948602BC
:100020000C9490020C94B4000C94B4000C94B400A2
:100030000C9415020C94B4000C94B4000C94B4000D
:100040000C94B4000C94B4000C94CA010C94B40049
:100050000C94B4000C94B4000C94B4000C94B40050
:100060000C94B4000C94B4000C94B4000C94B40040
:100070000C94B4000C94B4000C9462010C94B40081
:100080000C94B4000C94B4000C94B4000C942E01A5
:100090000C94FB010C94B4000C94EC010C94B4008F
:1000A0000C94B4000C94B4000C94B4000763423672
:1000B000B79BD8A71A39685618AEBAAB558C1D3CF9
:1000C000B7CC5763BD6DEDFD753EF6177231BF00BD
:1000D0000000803F08000000BE922449123EABAAF7
:1000E000AA2ABECDCCCC4C3E00000080BEABAAAA52
:1000F000AA3E00000000BF000000803F000000009A
:1001000000084178D3BB4387D1133D190E3CC3BDD2
:100110004282AD2B3E68EC8276BED98FE1A93E4C7F
:1001200080EFFFBE01C4FF7F3F00000000001124EC
:100130001FBECFEFCDBFDFE2DEBF10E2A0E0B0E236
:10014000EEE4F3E202C005900D92A63FB107D9F7A5
:1001500021E2A6EFB0E201C01D92AD32B207E1F795
:100160000E94DA060C94A5110C940000E0E5F0E082
:100170008BE48283808188608083818183FD09C0D4
:10018000A0E4B6E092E015969C931597818183FFD9
:10019000FACF82E08093460688ED84BFE0E5F0E088
:1001A00088EC8583808180618083818184FD09C0A2
:1001B000A0E4B6E092E015969C931597818184FFA8
:1001C000FACF82E08093460688ED84BFE0E4F0E059
:1001D000108284BF84E080830895CF93DF93E0E4AE
:1001E000F6E092E0918321E0218380E2818344E084
:1001F000428338E0328358E1528B538BC0E0D6E023
:100200002A839A83A0E6B6E012962C931297129650
:100210009C93129712964C9312973A8330E13A834B
:100220008A8350E45A8350E85A8332834A83129671
:100230003C93129711968C93119719969C9319974A
:100240001A963C931A9754962C9354972683968328
:10025000858316968C93DF91CF9108951F920F920C
:100260000FB60F9211248F939F9380E180936C06B9
:1002700080910020813081F4109260081092610812
:100280001092002087EC90E00197F1F700C0000089
:1002900082E0809374060FC080916008909161089D
:1002A000880F991F809313219093142181E08093EC
:1002B0000020809374069F918F910F900FBE0F9036
:1002C0001F9018951F920F920FB60F9211248F93C3
:1002D0009F93EF93FF93F89484E080930C068091B2
:1002E0002421813061F48091080682FD0BC01FC07B
:1002F0008091080682FF0DC01AC078941CC0882324
:10030000B9F315C010920804109209041092242128
:10031000F4CF8091080490910904E3E2F1E2848330
:10032000958386819781019686839783E6CF82E0C5
:1003300080934506E2CFFF91EF919F918F910F90AF
:100340000FBE0F901F901895E0E0F8E087E08083E3
:1003500089E09DE386A397A3118281E08683E0E490
:10036000F8E085E08083118220EE3EE226A337A3E9
:1003700092E09683E0E4F9E08083118280E197E2E5
:1003800086A397A383E08683878386EB93E080A789
:1003900091A708951F920F920FB60F9211248F9379
:1003A0009F93EF93FF93E0E4F8E084858160848776
:1003B00081E080930020809374068CED95E080931B
:1003C000132190931421FF91EF919F918F910F90A2
:1003D0000FBE0F901F9018951F920F920FB60F929D
:1003E00011248F9380E2809366068F910F900FBE49
:1003F0000F901F9018951F920F920FB60F92112415
:100400008F93EF93FF9380E280936506E0E4F9E039
:1004100084858160848710A211A2FF91EF918F9152
:100420000F900FBE0F901F9018951F920F920FB64E
:100430000F9211242F933F934F935F936F937F936A
:100440008F939F93AF93EF93FF932091152130915A
:100450001621409117215091182160911921709116
:100460001A2180911B2190911C21A1E00E94920EE3
:100470002093152130931621409317215093182172
:100480006093192170931A2180931B2190931C2152
:10049000E0E0F8E084858160848781E080931D211D
:1004A000FF91EF91AF919F918F917F916F915F91AC
:1004B0004F913F912F910F900FBE0F901F90189565
:1004C000E0E0F4E089E0808385E08283A0E5B0E0AD
:1004D0008C9184608C938FE79CE00197F1F700C0CA
:1004E0000000A0E4B0E08CE013968C931397139671
:1004F0008C911397816013968C9380E090E48487AD
:10050000958780E09FEF8287938708951F920F92CF
:100510000FB60F9211240F900FBE0F901F901895D9
:100520001F920F920FB60F9211248F93EF93FF93A8
:10053000E0E0F4E01086118682E0838310922721A8
:1005400010922821FF91EF918F910F900FBE0F9085
:100550001F9018950895AAECB1E092E09C93E82FC3
:10056000F0E084911C920895CF93DF93C0E0D2E035
:1005700082E1898380E28A831B8287E08C8380E228
:100580000E94AB028C8781E20E94AB028D878FE7CD
:100590009CE00197F1F700C0000082E088A381E4AD
:1005A00089A31AA281E08883DF91CF910895AAECF4
:1005B000B1E022E02C93FC0184911C9208952F92CB
:1005C0003F924F925F926F927F928F929F92AF92E3
:1005D000BF92CF92DF92EF92FF920F931F93CF9330
:1005E000DF9388E090E00E94D702C8E0D1E28883E0
:1005F00089E090E00E94D70289838AE090E00E941F
:10060000D7028A838BE090E00E94D7028B838CE034
:1006100090E00E94D7028C838DE090E00E94D70288
:100620008D8380E190E00E94D7028E8382E190E08A
:100630000E94D7028F8383E190E00E94D7028887CF
:1006400084E190E00E94D702898785E190E00E94D2
:10065000D7028A872880312C412C512C612C712C97
:100660004301A9E0B1E2E4E6F0E08D918E9FE00164
:100670008F9FD00D11241D2F110F110B222D332D03
:10068000442D552D662D772D882D992DAC2EBD2E00
:10069000C12ED12EE12EF12E012F0E94890E222E85
:1006A000332E442E552E662E772E882E992EEC59F9
:1006B000FF4FE83582E0F807C1F620920021309222
:1006C00001214092022150920321609204217092F4
:1006D00005218092062190920721E8E0F1E226812F
:1006E000A781C4E6AC9FD00111241B2F110F110B61
:1006F00030E040E050E060E070E080E090E0AA2E62
:10070000BB2EC12ED12EE12EF12E012F0E94890E7B
:10071000A085C8ECAC9FD00111241B2F110F110B29
:10072000AA2EBB2EC12ED12EE12EF12E012F0E941A
:10073000890EC185ACE2B1E0CA9FF001CB9FF00DFC
:1007400011241F2F110F110BAE2EBF2EC12ED12E33
:10075000E12EF12E012F0E94890E2093F820309374
:10076000F9204093FA205093FB206093FC20709373
:10077000FD208093FE209093FF208FEF9FEF8093CA
:10078000F6209093F720222D332D442D552D662DE4
:10079000772D882D992D21393E4341405105610522
:1007A00071058105910541F52091F8203091F920DE
:1007B0004091FA205091FB206091FC207091FD2027
:1007C0008091FE209091FF2023313943410551054E
:1007D000610571058105910509F064C081E090E033
:1007E0008093F6209093F7205DC082E090E08093A4
:1007F000F6209093F720F3C0222D332D442D552D54
:10080000662D772D882D992D293139434140510589
:10081000610571058105910509F0E1C02091F8207D
:100820003091F9204091FA205091FB206091FC20FA
:100830007091FD208091FE209091FF202638354157
:1008400041055105610571058105910509F045C016
:1008500083E090E08093F6209093F7203EC084E000
:1008600090E08093F6209093F72051C085E090E0CF
:100870008093F6209093F72064C086E090E0809308
:10088000F6209093F72077C087E090E08093F620E1
:100890009093F7208AC089E090E08093F6209093AF
:1008A000F7209DC02091F8203091F9204091FA2046
:1008B0005091FB206091FC207091FD208091FE20E2
:1008C0009091FF20273333434105510561057105A0
:1008D0008105910509F083C088CF2091F8203091DF
:1008E000F9204091FA205091FB206091FC207091FA
:1008F000FD208091FE209091FF20263D3041410552
:100900005105610571058105910509F4A8CF209174
:10091000F8203091F9204091FA205091FB2060910D
:10092000FC207091FD208091FE209091FF20233FBC
:100930003C4241055105610571058105910509F4A8
:1009400095CF2091F8203091F9204091FA205091D4
:10095000FB206091FC207091FD208091FE20909101
:10096000FF202A3D30424105510561057105810591
:10097000910509F482CF2091F8203091F92040911F
:10098000FA205091FB206091FC207091FD20809115
:10099000FE209091FF202F3A3F414105510561050E
:1009A00071058105910509F46FCF2091F8203091F0
:1009B000F9204091FA205091FB206091FC20709129
:1009C000FD208091FE209091FF2025373042410587
:1009D0005105610571058105910509F45CCFDF9131
:1009E000CF911F910F91FF90EF90DF90CF90BF902C
:1009F000AF909F908F907F906F905F904F903F90BF
:100A00002F900895E0E0F2E081E481A380A1806866
:100A100080A38FE79CE00197F1F700C0000086817A
:100A200080FFFDCFE0E0F2E081E0868384A195A124
:100A30000895813021F489E48093210203C081E587
:100A400080932102E0E0F2E080A1806880A38681AB
:100A500080FFFDCFE0E0F2E081E0868384A195A1F4
:100A60000895823099F028F4882341F0813051F0C4
:100A700018C0833079F0843089F013C089E1809305
:100A800021020FC081E2809321020BC089E2809392
:100A9000210207C081E38093210203C089E3809390
:100AA0002102E0E0F2E080A1806880A3868180FFDF
:100AB000FDCFE0E0F2E081E0868384A195A1089576
:100AC0002F923F924F925F926F927F928F929F925E
:100AD000AF92BF92CF92DF92EF92FF920F931F934C
:100AE000CF93DF930F2EF4E66F2E712CF02D412C57
:100AF000512C812C912CD0E0C0E0212C312C0E9473
:100B00000205B92EA82E192F110F110B242D352DEA
:100B1000482D592D6D2F7C2F822D932DC12ED12E36
:100B2000E12EF12E012F0E94890E422E532E842E8B
:100B3000952ED62FC72F282E392E81E0681A7108DE
:100B4000F1F60F2EF4E6AF2EF02DB12CC12CD12CE6
:100B5000E12CF12C00E010E0242D352D482D592DED
:100B60006D2F7C2F822D932D0E942C0E622F732FC0
:100B700080E090E00E94120B29E83DE04DE95AE345
:100B80000E94C40B24E637E649E15BE30E94F909C1
:100B900020E030E048E452E40E94C40BDF91CF91A2
:100BA0001F910F91FF90EF90DF90CF90BF90AF908B
:100BB0009F908F907F906F905F904F903F902F907D
:100BC00008954F925F926F927F928F929F92AF9211
:100BD000BF92CF92DF92EF92FF921F93CF93DF935A
:100BE000182FC4E6D0E0C12CD12C7601812F0E94B1
:100BF0001905AC01990F660B770BC40ED51EE61EC6
:100C0000F71E219799F7C701B60124E630E040E0CE
:100C100050E00E94080EB90180E090E00E94120BA3
:100C200029E83DE04DE95AE30E94C40B24E637E68B
:100C300049E15BE30E94F9096B017C0120E030E0AF
:100C400040E850E40E94310C4B015C0120E030E0B0
:100C500040E450E4C701B6010E94310C2B013C0175
:100C600029EA33E144E850ECC501B4010E94C40B09
:100C70004B015C0128EE3AEE48EE51E4C301B201AB
:100C80000E94C40B9B01AC01C501B4010E94F9098B
:100C90004B015C01A7019601C701B6010E94C40B7C
:100CA00029E134E446E952E40E94C40B9B01AC0103
:100CB000C501B4010E94F8094B015C0123EB3AE441
:100CC0004BEA52E4C701B6010E94C40B9B01AC0180
:100CD000C501B4010E94F9092BE035E341EC51E470
:100CE0000E94F809DF91CF911F91FF90EF90DF9064
:100CF000CF90BF90AF909F908F907F906F905F90BC
:100D00004F900895CF92DF92EF92FF921F93CF936F
:100D1000DF93182FC4E6D0E0C12CD12C7601812FAF
:100D20000E943105C80ED91EE11CF11C2197B9F7AC
:100D30001123A1F1C701B60124E630E040E050E004
:100D40000E94080EB90180E090E00E94120B29E891
:100D50003DE04DE95AE30E94C40B24E637E649E141
:100D60005BE30E94F90920E030E040EC5FE30E9481
:100D70006A0A9B01AC0163E373E383E590E40E949C
:100D8000F80923E333E343ED5FE30E94F8092EEA19
:100D900037E441E65DE30E946A0A04C066E676E64F
:100DA00086EF90E4DF91CF911F91FF90EF90DF905D
:100DB000CF900895CF93DF93CDB7DEB76097CDBFC7
:100DC000DEBF0E94ED000E94B6000E94CF090E9483
:100DD000A4010E94B4020E9460020E94AA020E9422
:100DE000DF02E0EAF0E082818160828382818260BA
:100DF00082838281846082837894E3E2F1E281E0FD
:100E00008183128213821682178283E090E20E940D
:100E1000330988E190E20E9433098BE290E20E945C
:100E200033098EE290E20E9433098091F62090917E
:100E3000F7208F3F2FEF920729F481E490E20E9480
:100E4000330902C00E945E0989E490E20E943309DE
:100E50000F2EF0E46F2EF6E07F2EF02D212C6894FB
:100E6000332433F800EC19E00F2EFAE04F2E512C0A
:100E7000F02DCC24C3940F2EF2E3BF2EF02D6894F6
:100E8000992495F86894882481F80F2EF5E0AF2E08
:100E9000F02D0F2EF0E4EF2EF9E0FF2EF02D8FE372
:100EA0009FE10197F1F700C000008091C1088823FD
:100EB0000CF06FC0E0ECF8E0D08082EE8D0D843253
:100EC00018F48D2D0E944309F9E7DF1203C0F301E6
:100ED000958210C0FEE6DF1203C0F30196820AC0BD
:100EE000F6E4DF1207C01092202110921E2110920A
:100EF0001F214FC089EB8D0D813108F04AC0C0928F
:100F00002021BD9CC0011124825999408093012069
:100F100090930220F301808582FD1FC0F10186A11C
:100F200097A185339C4039F482E390E080931E21A1
:100F300090931F212EC0F10186A197A189309D4376
:100F400029F440921E2150921F2123C082E390E099
:100F500080931E2190931F211CC0F10186A197A1AF
:100F600085339C4029F440921E2150921F2111C0CC
:100F7000F10186A197A189309D4339F482E090E088
:100F800080931E2190931F2104C040921E215092F5
:100F90001F21F8018181882374F480818A3029F42B
:100FA000C0922221A092212106C0843121F4809296
:100FB0002221A0922121809120218823A1F06091FB
:100FC00001207091022080E090E00E94120B20E04E
:100FD00030E040E05FE30E94C40B0E94E30AF701A7
:100FE00060A771A713C0609113217091142180E054
:100FF00090E00E94120B20E030E040E05FE30E94AE
:10100000C40B0E94E30AF70160A771A780911D211C
:10101000882309F444CF10921D21F10110A211A2DE
:101020000E94600569837A838B839C8381E00E94A0
:10103000E1056B017C0180E00E94E1054B015C0150
:1010400082E00E9482066D837E838F83988781E091
:101050000E94820669877A878B879C8783E00E943B
:1010600082066D877E878F87988B10920804109276
:10107000090410922421E0E0F4E0A0E0B6E08FE85B
:1010800091E00197F1F700C00000808591858231E1
:10109000914028F418968C91189782FDF0CFE0E0EB
:1010A000F4E0A0E0B6E08FE891E00197F1F700C02E
:1010B0000000808591858231914028F418968C91AA
:1010C000189782FFF0CF1092080410920904E0E014
:1010D000F4E0A0E0B6E08FE891E00197F1F700C0FE
:1010E0000000808591858231914028F418968C917A
:1010F000189782FDF0CF8091080490910904E3E2F3
:10110000F1E2848395832481358144E6429FC001C6
:10111000439F900D112461E171E00E94F40D608302
:101120008681978101968683978384819581C70103
:10113000B6010E94750983EE90E20E94330920E017
:1011400030E0A901C501B4010E94650A882334F486
:1011500060E070E0CB010E94750904C0C501B401D4
:101160000E94750983EE90E20E94330969817A81B9
:101170008B819C810E94750983EE90E20E94330965
:101180006D817E818F8198850E94750983EE90E242
:101190000E94330969857A858B859C850E94750933
:1011A00083EE90E20E9433096D857E858F85988954
:1011B0000E94750983EE90E20E9433090F2EF3E23C
:1011C000EF2EF1E2FF2EF02DF70180810E944609FB
:1011D000F7018081811104C085EE90E20E943309FD
:1011E00083EE90E20E942309809122210E94460909
:1011F00080EE90E20E94230980912121815080930A
:101200002121811102C01092222180911E219091F2
:101210001F21009731F0019780931E2190931F2189
:1012200002C010922021F301808583FD06C085E372
:101230009CE0F10186A397A31CCE89E09DE3F10118
:1012400086A397A316CEFC012081222359F0DC014E
:101250001196E0ECF8E0918195FFFDCF20832D9170
:101260002111F9CF0895FC012081222359F0DC01DE
:101270001196E0ECF8E0918195FFFDCF20832D9150
:101280002111F9CF08958093C0090895CF93DF937A
:10129000CDB7DEB72A97CDBFDEBF4AE0BE016F5F94
:1012A0007F4F90E00E949E0ECE0101960E9423097E
:1012B0002A96CDBFDEBFDF91CF910895CF93DF9304
:1012C000CDB7DEB76497CDBFDEBF4AE0BE016F5F2A
:1012D0007F4F0E949E0ECE0101960E9423096496C4
:1012E000CDBFDEBFDF91CF9108958F929F92AF92D5
:1012F000BF92CF92DF92EF92FF920F931F93CF9303
:10130000DF93CDB7DEB7C456D109CDBFDEBF4B01E9
:101310005C010E94DC0A6B017C01072E000C880B2B
:10132000990B0E94140B9B01AC01C501B4010E94F2
:10133000F80920E030E44CE156E40E94C40B0E941E
:10134000810C0E94DC0A9B01772324F42227332797
:10135000261B370B3F932F93DF92CF928EEE90E2B6
:101360009F938F938E010F5F1F4F1F930F930E94C8
:10137000C30EC8010E942309CDBFDEBFCC59DF4F89
:10138000CDBFDEBFDF91CF911F910F91FF90EF9006
:10139000DF90CF90BF90AF909F908F900895E0E442
:1013A000F6E040E8418330E43283868580618687B9
:1013B000E0ECF8E023E0248392E2968317828381B5
:1013C00080618383838188608383E0E6F6E04183E4
:1013D0003283868580618687E0ECF9E024839683FA
:1013E00017828381806183838381886083830895EA
:1013F0005058BB27AA270E94100A0C948A0B0E94FF
:101400007C0B38F00E94830B20F039F49F3F19F4D5
:1014100026F40C94790B0EF4E095E7FB0C94730B17
:10142000E92F0E949B0B58F3BA17620773078407D2
:10143000950720F079F4A6F50C94BD0B0EF4E09519
:101440000B2EBA2FA02D0B01B90190010C01CA017E
:10145000A0011124FF27591B99F0593F50F4503E29
:1014600068F11A16F040A22F232F342F4427585F1B
:10147000F3CF469537952795A795F0405395C9F733
:101480007EF41F16BA0B620B730B840BBAF09150EB
:10149000A1F0FF0FBB1F661F771F881FC2F70EC08A
:1014A000BA0F621F731F841F48F48795779567955D
:1014B000B795F7959E3F08F0B0CF9395880F08F049
:1014C0009927EE0F9795879508950E944F0B08F482
:1014D00081E008950E947E0A0C948A0B0E94830B7F
:1014E00058F00E947C0B40F029F45F3F29F00C94E7
:1014F000730B51110C94BE0B0C94790B0E949B0B37
:1015000068F39923B1F3552391F3951B550BBB2732
:10151000AA2762177307840738F09F5F5F4F220F77
:10152000331F441FAA1FA9F335D00E2E3AF0E0E86E
:1015300032D091505040E695001CCAF72BD0FE2FB8
:1015400029D0660F771F881FBB1F2617370748074C
:10155000AB07B0E809F0BB0B802DBF01FF27935804
:101560005F4F3AF09E3F510578F00C94730B0C944A
:10157000BE0B5F3FE4F3983ED4F38695779567956D
:10158000B795F7959F5FC9F7880F911D9695879539
:1015900097F90895E1E0660F771F881FBB1F621758
:1015A00073078407BA0720F0621B730B840BBA0B16
:1015B000EE1F88F7E09508950E94E30A6894B11140
:1015C0000C94BE0B08950E94A30B88F09F5798F0CF
:1015D000B92F9927B751B0F0E1F0660F771F881F38
:1015E000991F1AF0BA95C9F714C0B13091F00E9452
:1015F000BD0BB1E008950C94BD0B672F782F8827A1
:10160000B85F39F0B93FCCF3869577956795B39578
:10161000D9F73EF490958095709561957F4F8F4FE7
:101620009F4F0895E89409C097FB3EF490958095EC
:10163000709561957F4F8F4F9F4F9923A9F0F92F98
:1016400096E9BB279395F695879577956795B79516
:10165000F111F8CFFAF4BB0F11F460FF1BC06F5FFC
:101660007F4F8F4F9F4F16C0882311F096E911C00E
:10167000772321F09EE8872F762F05C0662371F02F
:1016800096E8862F70E060E02AF09A95660F771F43
:10169000881FDAF7880F9695879597F90895990F1F
:1016A0000008550FAA0BE0E8FEEF16161706E8072C
:1016B000F907C0F012161306E407F50798F0621B4D
:1016C000730B840B950B39F40A2661F0232B242B22
:1016D000252B21F408950A2609F4A140A6958FEF41
:1016E000811D811D089597F99F6780E870E060E093
:1016F00008959FEF80EC089500240A9416161706AB
:1017000018060906089500240A94121613061406F2
:1017100005060895092E0394000C11F4882352F055
:10172000BB0F40F4BF2B11F460FF04C06F5F7F4F0D
:101730008F4F9F4F089557FD9058440F551F59F0F4
:101740005F3F71F04795880F97FB991F61F09F3FAE
:1017500079F087950895121613061406551FF2CFD7
:101760004695F1DF08C0161617061806991FF1CF27
:1017700086957105610508940895E894BB2766274E
:101780007727CB0197F908950E94D70B0C948A0B09
:101790000E947C0B38F00E94830B20F0952311F0FF
:1017A0000C94730B0C94790B11240C94BE0B0E94B7
:1017B0009B0B70F3959FC1F3950F50E0551F629FEF
:1017C000F001729FBB27F00DB11D639FAA27F00D9A
:1017D000B11DAA1F649F6627B00DA11D661F829FC1
:1017E0002227B00DA11D621F739FB00DA11D621FA6
:1017F000839FA00D611D221F749F3327A00D611DC3
:10180000231F849F600D211D822F762F6A2F1124A4
:101810009F5750409AF0F1F088234AF0EE0FFF1FD7
:10182000BB1F661F771F881F91505040A9F79E3F2E
:10183000510580F00C94730B0C94BE0B5F3FE4F3E6
:10184000983ED4F3869577956795B795F795E79584
:101850009F5FC1F7FE2B880F911D9695879597F98D
:101860000895FA01EE0FFF1F309621053105A1F111
:101870006115710561F48038BFE39B0749F16894F5
:101880009038810561F08038BFEF9B0741F09923C4
:101890004AF5FF3FE1053105210519F1E894089467
:1018A000E795D901AA2329F4AB2FBE2FF85FD0F317
:1018B00010C0FF5F70F4A695E0F7F73950F019F00B
:1018C000FF3A38F49F779F930DD00F9007FC905804
:1018D000089546F00C94790B60E070E080E89FE397
:1018E00008954FE79F775F934F933F932F930E9405
:1018F000780D2F913F914F915F910E94C40B0C94F2
:10190000940C0E94160D30F09F3710F40C94BE0B0F
:101910000C94C60C0C94E10C29F416F00C94730B87
:101920000C94BD0B0C94790B0E94A30BA8F3963872
:10193000A0F707F80F92E8942BE33AEA48EB5FE749
:101940000E94DA0B0F920F920F924DB75EB70F9273
:101950000E94C00DECEAF0E00E94EF0C4F915F9105
:10196000EF91FF91E595EE1FFF1F49F0FE57E068EC
:101970004427EE0F441FFA95E1F74195550B0E945D
:101980003A0D0F9007FE0C942E0D0895882371F4E4
:10199000772321F09850872B762F07C0662311F408
:1019A00099270DC09051862B70E060E02AF09A953F
:1019B000660F771F881FDAF7880F9695879597F936
:1019C00008959F3F31F0915020F487957795679562
:1019D000B795880F911D9695879597F90895DF9390
:1019E000CF931F930F93FF92EF92DF927B018C01B5
:1019F000689406C0DA2EEF010E94D70BFE01E8942E
:101A0000A5912591359145915591A6F3EF010E943D
:101A1000100AFE019701A801DA9469F7DF90EF90B0
:101A2000FF900F911F91CF91DF9108950E94A30B1A
:101A3000A0F0BEE7B91788F4BB279F3860F41616EC
:101A4000B11D672F782F8827985FF7CF86957795F8
:101A50006795B11D93959639C8F308959B01AC0124
:101A600060E070E080E89FE30C946A0A0C94730BCA
:101A70000C94E10C0E94A30BD8F39923C9F3940FA3
:101A8000511DA3F39150504094F059F0882332F047
:101A9000660F771F881F91505040C1F79E3F510538
:101AA0002CF7880F911D9695879597F908955F3FBC
:101AB000ACF0983E9CF0BB27869577956795B795D7
:101AC00008F4B1609395C1F7BB0F58F711F460FFAC
:101AD000E8CF6F5F7F4F8F4F9F4FE3CF0C94BE0BCC
:101AE00016F00C94E10C0C94790B68940C94730B25
:101AF0000E94A30BA8F39923C1F3AEF3DF93CF9316
:101B00001F930F93FF92C92FDD2788232AF0219777
:101B1000660F771F881FDAF720E030E040E85FEBC0
:101B20009FE3883920F0803E38F021968F770E941D
:101B3000F909E4EDF0E004C00E94F909E1E0F1E008
:101B40000E94EF0C8B01BE01EC01FB2E6F57710957
:101B50007595771F880B990B0E94140B28E132E7CB
:101B600041E35FE30E94D70BAF2D9801AE01FF90D8
:101B70000F911F91CF91DF910E94100A0C948A0B54
:101B8000FA01DC01AA0FBB1F9B01AC01BF5728F46F
:101B9000222733274427507820C0B75190F4AB2F29
:101BA0000024469537952795011CA395D2F3002074
:101BB00071F0220F331F441FB395DAF30ED00C944B
:101BC000F80961307105A0E88A07B94630F49B0135
:101BD000AC016627772788279078309621F02083FC
:101BE0003183428353830895AA1BBB1B51E107C075
:101BF000AA1FBB1FA617B70710F0A61BB70B881F9D
:101C0000991F5A95A9F780959095BC01CD0108952B
:101C1000A1E21A2EAA1BBB1BFD010DC0AA1FBB1FF0
:101C2000EE1FFF1FA217B307E407F50720F0A21B62
:101C3000B30BE40BF50B661F771F881F991F1A94CF
:101C400069F760957095809590959B01AC01BD01F9
:101C5000CF010895689401C0E8948F929F92CF932A
:101C6000DF930E94380EDF91CF919F908F9008955F
:101C700088249924F401E401B0E49F93AA279A15DB
:101C80008B049C04ED05FE05CF05D007A10798F451
:101C9000AD2FDC2FCF2FFE2FE92D982C892E982FDA
:101CA000872F762F652F542F432F322F2227B8509E
:101CB00031F7BF9127C01B2EBF91BB27220F331FC7
:101CC000441F551F661F771F881F991F881C991C6A
:101CD000EE1FFF1FCC1FDD1FAA1FBB1F8A149B0412
:101CE000EC05FD05CE05DF05A007B10748F08A1811
:101CF0009B08EC09FD09CE09DF09A00BB10B21609F
:101D00001A94E1F62EF49401AF01BE01CD01000C4E
:101D100008952A0D3B1D4C1D5D1D6E1D7F1D801FEE
:101D2000911F08950024A7FD00942A0F301D401D27
:101D3000501D601D701D801D901D0895BB274A30E9
:101D400031F4992322F4BDE2909581959F4F0C9434
:101D5000AA0EBB27FB015527AA27880F991FAA1F88
:101D6000A41710F0A41B83955051B9F7A05DAA33B6
:101D700008F0A95DA193009779F7B111B193119281
:101D8000CB010C94CE10AEE0B0E0E9ECFEE00C9498
:101D900082110D891E8986E08C8309831A838FEF57
:101DA0009FE78D839E83AE01475E5F4F6F89788D7D
:101DB000CE0101960E94E60E2F813885F801E20FD0
:101DC000F31F10822E96E4E00C949B11ACE0B0E07F
:101DD000ECEEFEE00C9474117C016B018A01FC01B5
:101DE00016821782838181FFBDC1CE0101964C010D
:101DF000F7019381F60193FD859193FF81916F0126
:101E0000882309F4ABC1853239F493FD859193FFA2
:101E100081916F01853229F4B70190E00E94DE10B4
:101E2000E7CF512C312C20E02032A0F48B3269F026
:101E300030F4803259F0833269F420612CC08D3245
:101E400039F0803339F4216026C02260246023C039
:101E5000286021C027FD27C030ED380F3A3078F4D4
:101E600026FF06C0FAE05F9E300D1124532E13C0EA
:101E70008AE0389E300D1124332E20620CC08E3241
:101E800021F426FD6BC1206406C08C3611F4206855
:101E900002C0883641F4F60193FD859193FF81914C
:101EA0006F018111C1CF982F9F7D9554933028F4F5
:101EB0000C5F1F4FFFE3F9830DC0833631F083378A
:101EC00071F0833509F05BC022C0F80180818983FD
:101ED0000E5F1F4F44244394512C540115C0380108
:101EE000F2E06F0E711CF801A080B18026FF03C0E4
:101EF000652D70E002C06FEF7FEFC5012C870E9457
:101F0000C3102C0183012C852F77222E17C0380196
:101F1000F2E06F0E711CF801A080B18026FF03C0B3
:101F2000652D70E002C06FEF7FEFC5012C870E9426
:101F3000B8102C012C852068222E830123FC1BC0A5
:101F4000832D90E048165906B0F4B70180E290E086
:101F50000E94DE103A94F4CFF50127FC859127FE0C
:101F600081915F01B70190E00E94DE1031103A9438
:101F7000F1E04F1A51084114510471F7E5C084365D
:101F800011F0893639F5F80127FF07C060817181AA
:101F9000828193810C5F1F4F08C060817181072E81
:101FA000000C880B990B0E5F1F4F2F76722E97FF38
:101FB00009C090958095709561957F4F8F4F9F4F89
:101FC0002068722E2AE030E0A4010E941611A82E8B
:101FD000A81844C0853729F42F7EB22E2AE030E0BD
:101FE00025C0F22FF97FBF2E8F36C1F018F4883547
:101FF00079F0B4C0803719F0883721F0AFC02F2FA7
:102000002061B22EB4FE0DC08B2D8460B82E09C0A5
:1020100024FF0AC09F2F9660B92E06C028E030E04A
:1020200005C020E130E002C020E132E0F801B7FE57
:1020300007C060817181828193810C5F1F4F06C050
:102040006081718180E090E00E5F1F4FA4010E94CB
:102050001611A82EA818FB2DFF777F2E76FE0BC039
:10206000372D3E7FA51450F474FE0AC072FC08C0E0
:10207000372D3E7E05C0BA2C372D03C0BA2C01C0C7
:10208000B52C34FF0DC0FE01EA0DF11D80818033B7
:1020900011F4397E09C032FF06C0B394B39404C072
:1020A000832F867809F0B39433FD13C030FF06C048
:1020B0005A2CB31418F4530C5B18B32CB31468F4F3
:1020C000B70180E290E03C870E94DE10B3943C852B
:1020D000F5CFB31410F43B1801C0312C34FF12C0FB
:1020E000B70180E390E03C870E94DE103C8532FF20
:1020F00017C031FD03C088E790E002C088E590E09A
:10210000B7010CC0832F867859F031FF02C08BE2F3
:1021100001C080E237FD8DE2B70190E00E94DE1041
:10212000A51438F4B70180E390E00E94DE105A94C1
:10213000F7CFAA94F401EA0DF11D8081B70190E078
:102140000E94DE10A110F5CF332009F451CEB70163
:1021500080E290E00E94DE103A94F6CFF70186818B
:10216000978102C08FEF9FEF2C96E2E10C948D11C6
:10217000FC010590615070400110D8F78095909552
:102180008E0F9F1F0895FC01615070400190011057
:10219000D8F7809590958E0F9F1F0895DC01FC0164
:1021A000672F71917723E1F7329704C07C916D938B
:1021B00070836291AE17BF07C8F308950F931F9302
:1021C000CF93DF93FB01238121FD03C08FEF9FEFAE
:1021D00028C022FF16C046815781248135814217CD
:1021E000530744F4A081B1819D012F5F3F4F2083AD
:1021F00031838C93268137812F5F3F4F268337832E
:1022000010C0EB01092F182F0084F185E02D0995EE
:10221000892BE1F68E819F8101968E839F83812F8A
:10222000902FDF91CF911F910F910895FA01AA2766
:10223000283051F1203181F1E8946F936E7F6E5F09
:102240007F4F8F4F9F4FAF4FB1E03ED0B4E03CD0B7
:10225000670F781F891F9A1FA11D680F791F8A1F9A
:10226000911DA11D6A0F711D811D911DA11D20D001
:1022700009F468943F912AE0269F11243019305DBB
:102280003193DEF6CF010895462F4770405D4193AC
:10229000B3E00FD0C9F7F6CF462F4F70405D4A33F9
:1022A00018F0495D31FD4052419302D0A9F7EACFC1
:1022B000B4E0A6959795879577956795BA95C9F7F0
:1022C00000976105710508959B01AC010A2E0694E3
:1022D0005795479537952795BA95C9F7620F731F9C
:1022E000841F951FA01D08952F923F924F925F92D9
:1022F0006F927F928F929F92AF92BF92CF92DF9216
:10230000EF92FF920F931F93CF93DF93CDB7DEB77A
:10231000CA1BDB0BCDBFDEBF09942A8839884888E9
:102320005F846E847D848C849B84AA84B984C884F1
:10233000DF80EE80FD800C811B81AA81B981CE0FE8
:0E234000D11DCDBFDEBFED010895F894FFCF93
:10234E0001DC050A0D235B494E495420524F53536D
:10235E00205044425D0A0D00234669726D7761720A
:10236E00652076657273696F6E20002E32000A0D3D
:10237E002353657269616C204E756D6265723A20E9
:10238E00004E4F5420534554000A0D234D736720C1
:10239E00666F726D61743A20456C656374726F6E10
:1023AE00696373204261747420566F6C74207C20B4
:1023BE0052656172204261747420566F6C74207C79
:1023CE002045626F782054656D7065726174757208
:1023DE0065207C2035765F535953204375727220E9
:1023EE007C2035765F436F6D702043757272207C52
:1023FE00205468726F74746C652043757272656ECA
:10240E0074207C205854656E642052535349207CAE
:10241E00202252656D6F746520496E70757422208E
:10242E000A0D007C003000256C78256C7800256440
:06243E002E25303464007D
:00000001FF
